{
  "contractName": "Voting",
  "abi": [
    {
      "inputs": [],
      "stateMutability": "nonpayable",
      "type": "constructor"
    },
    {
      "anonymous": false,
      "inputs": [
        {
          "indexed": true,
          "internalType": "address",
          "name": "_voterAddres",
          "type": "address"
        },
        {
          "indexed": false,
          "internalType": "uint256",
          "name": "_candidateId",
          "type": "uint256"
        }
      ],
      "name": "Vote",
      "type": "event"
    },
    {
      "inputs": [
        {
          "internalType": "uint256",
          "name": "",
          "type": "uint256"
        }
      ],
      "name": "candidates",
      "outputs": [
        {
          "internalType": "string",
          "name": "name",
          "type": "string"
        },
        {
          "internalType": "string",
          "name": "association",
          "type": "string"
        },
        {
          "internalType": "uint256",
          "name": "totalVotes",
          "type": "uint256"
        }
      ],
      "stateMutability": "view",
      "type": "function",
      "constant": true
    },
    {
      "inputs": [],
      "name": "topIdCandidate",
      "outputs": [
        {
          "internalType": "uint256",
          "name": "",
          "type": "uint256"
        }
      ],
      "stateMutability": "view",
      "type": "function",
      "constant": true
    },
    {
      "inputs": [
        {
          "internalType": "address",
          "name": "",
          "type": "address"
        }
      ],
      "name": "voters",
      "outputs": [
        {
          "internalType": "bool",
          "name": "",
          "type": "bool"
        }
      ],
      "stateMutability": "view",
      "type": "function",
      "constant": true
    },
    {
      "inputs": [
        {
          "internalType": "uint256",
          "name": "_candidateId",
          "type": "uint256"
        }
      ],
      "name": "vote",
      "outputs": [],
      "stateMutability": "nonpayable",
      "type": "function"
    }
  ],
  "bytecode": "0x60806040526000805534801561001457600080fd5b5061008f6040518060400160405280600581526020017f50657465720000000000000000000000000000000000000000000000000000008152506040518060400160405280600981526020017f497a71756965726461000000000000000000000000000000000000000000000081525061018860201b60201c565b6101096040518060400160405280600581526020017f4c6f7569730000000000000000000000000000000000000000000000000000008152506040518060400160405280600781526020017f446572656368610000000000000000000000000000000000000000000000000081525061018860201b60201c565b6101836040518060400160405280600481526020017f4d617279000000000000000000000000000000000000000000000000000000008152506040518060400160405280600681526020017f43656e74726f000000000000000000000000000000000000000000000000000081525061018860201b60201c565b6102b9565b600080815480929190600101919050555060405180606001604052808381526020018281526020016000815250600160008054815260200190815260200160002060008201518160000190805190602001906101e5929190610214565b506020820151816001019080519060200190610202929190610214565b50604082015181600201559050505050565b828054600181600116156101000203166002900490600052602060002090601f016020900481019282601f1061025557805160ff1916838001178555610283565b82800160010185558215610283579182015b82811115610282578251825591602001919060010190610267565b5b5090506102909190610294565b5090565b6102b691905b808211156102b257600081600090555060010161029a565b5090565b90565b61057a806102c86000396000f3fe608060405234801561001057600080fd5b506004361061004c5760003560e01c80630121b93f146100515780633477ee2e1461007f57806388be000314610199578063a3ec138d146101b7575b600080fd5b61007d6004803603602081101561006757600080fd5b8101908080359060200190929190505050610213565b005b6100ab6004803603602081101561009557600080fd5b81019080803590602001909291905050506103c4565b604051808060200180602001848152602001838103835286818151815260200191508051906020019080838360005b838110156100f55780820151818401526020810190506100da565b50505050905090810190601f1680156101225780820380516001836020036101000a031916815260200191505b50838103825285818151815260200191508051906020019080838360005b8381101561015b578082015181840152602081019050610140565b50505050905090810190601f1680156101885780820380516001836020036101000a031916815260200191505b509550505050505060405180910390f35b6101a161051e565b6040518082815260200191505060405180910390f35b6101f9600480360360208110156101cd57600080fd5b81019080803573ffffffffffffffffffffffffffffffffffffffff169060200190929190505050610524565b604051808215151515815260200191505060405180910390f35b60001515600260003373ffffffffffffffffffffffffffffffffffffffff1673ffffffffffffffffffffffffffffffffffffffff16815260200190815260200160002060009054906101000a900460ff161515146102d9576040517f08c379a00000000000000000000000000000000000000000000000000000000081526004018080602001828103825260168152602001807f796f75206861766520616c726561647920766f7465640000000000000000000081525060200191505060405180910390fd5b80600054811080156102eb5750600081115b6102f457600080fd5b60016000838152602001908152602001600020600201600081548092919060010191905055506001600260003373ffffffffffffffffffffffffffffffffffffffff1673ffffffffffffffffffffffffffffffffffffffff16815260200190815260200160002060006101000a81548160ff0219169083151502179055503373ffffffffffffffffffffffffffffffffffffffff167ff668ead05c744b9178e571d2edb452e72baf6529c8d72160e64e59b50d865bd0836040518082815260200191505060405180910390a25050565b6001602052806000526040600020600091509050806000018054600181600116156101000203166002900480601f0160208091040260200160405190810160405280929190818152602001828054600181600116156101000203166002900480156104705780601f1061044557610100808354040283529160200191610470565b820191906000526020600020905b81548152906001019060200180831161045357829003601f168201915b505050505090806001018054600181600116156101000203166002900480601f01602080910402602001604051908101604052809291908181526020018280546001816001161561010002031660029004801561050e5780601f106104e35761010080835404028352916020019161050e565b820191906000526020600020905b8154815290600101906020018083116104f157829003601f168201915b5050505050908060020154905083565b60005481565b60026020528060005260406000206000915054906101000a900460ff168156fea26469706673582212202d3069b2a04b07d9257832e3395d9d5a0b820fdb8be4840ab7a9ec01aa20f45864736f6c63430006000033",
  "source": "// SPDX-License-Identifier: MIT\r\npragma solidity >=0.4.0 <0.7.0;\r\n\r\ncontract Voting {\r\n    //estructuta y lista de candidatos\r\n    struct Candidate {\r\n        string name;\r\n        string association;\r\n        uint totalVotes;\r\n    }\r\n\r\n    uint public topIdCandidate = 0;\r\n    mapping (uint => Candidate) public candidates;\r\n\r\n    //votantes\r\n    mapping ( address => bool ) public voters;\r\n\r\n    //para asignar un id a candidatos nuevos\r\n\r\n    //modificadores al votar\r\n    modifier onlyHasNoVote () {\r\n        require(voters[msg.sender] == false, 'you have already voted');\r\n        _;\r\n    }\r\n\r\n    modifier validCandidate (uint _candidateId) {\r\n        require(_candidateId < topIdCandidate && _candidateId > 0);\r\n        _;\r\n    }\r\n\r\n    //eventos\r\n    event Vote(address indexed _voterAddres, uint _candidateId );\r\n\r\n    //constructor\r\n    constructor() public {\r\n        _addCandidate('Peter', 'Izquierda');\r\n        _addCandidate('Louis', 'Derecha');\r\n        _addCandidate('Mary', 'Centro');\r\n    }\r\n\r\n    //others functions\r\n    function _addCandidate (string memory _candidateName, string memory _candidateAssociation) private {\r\n        topIdCandidate++;\r\n        candidates[topIdCandidate] = Candidate(_candidateName, _candidateAssociation, 0);\r\n    }\r\n\r\n    //main function\r\n    function vote ( uint _candidateId ) public onlyHasNoVote validCandidate(_candidateId){\r\n        candidates[_candidateId].totalVotes ++;\r\n        voters[msg.sender] = true;\r\n        emit Vote(msg.sender, _candidateId);\r\n\r\n    }\r\n\r\n\r\n\r\n\r\n}",
  "sourcePath": "C:\\d\\git-2\\evote-r\\contracts\\Voting.sol",
  "compiler": {
    "name": "solc",
    "version": "0.6.0+commit.26b70077.Emscripten.clang"
  },
  "schemaVersion": "3.4.2",
  "updatedAt": "2022-02-20T23:21:54.151Z",
  "networkType": "ethereum",
  "devdoc": {
    "methods": {}
  },
  "userdoc": {
    "methods": {}
  }
}